{
  "contractName": "auction",
  "abi": [
    {
      "inputs": [],
      "payable": false,
      "stateMutability": "nonpayable",
      "type": "constructor"
    },
    {
      "payable": true,
      "stateMutability": "payable",
      "type": "fallback"
    },
    {
      "constant": false,
      "inputs": [
        {
          "name": "ben",
          "type": "address"
        },
        {
          "name": "i",
          "type": "uint256"
        }
      ],
      "name": "setBeneficiary",
      "outputs": [],
      "payable": false,
      "stateMutability": "nonpayable",
      "type": "function"
    },
    {
      "constant": false,
      "inputs": [
        {
          "name": "itemNumber",
          "type": "uint256"
        }
      ],
      "name": "startBid",
      "outputs": [],
      "payable": false,
      "stateMutability": "nonpayable",
      "type": "function"
    },
    {
      "constant": true,
      "inputs": [
        {
          "name": "a",
          "type": "address"
        }
      ],
      "name": "checkInList",
      "outputs": [
        {
          "name": "",
          "type": "bool"
        }
      ],
      "payable": false,
      "stateMutability": "view",
      "type": "function"
    },
    {
      "constant": true,
      "inputs": [
        {
          "name": "item",
          "type": "uint256"
        }
      ],
      "name": "getHighestBidder",
      "outputs": [
        {
          "name": "",
          "type": "address"
        }
      ],
      "payable": false,
      "stateMutability": "view",
      "type": "function"
    },
    {
      "constant": true,
      "inputs": [
        {
          "name": "item",
          "type": "uint256"
        }
      ],
      "name": "getHighestBid",
      "outputs": [
        {
          "name": "",
          "type": "uint256"
        }
      ],
      "payable": false,
      "stateMutability": "view",
      "type": "function"
    },
    {
      "constant": false,
      "inputs": [
        {
          "name": "item",
          "type": "uint256"
        }
      ],
      "name": "closeAuction",
      "outputs": [],
      "payable": false,
      "stateMutability": "nonpayable",
      "type": "function"
    },
    {
      "constant": true,
      "inputs": [
        {
          "name": "a",
          "type": "address"
        }
      ],
      "name": "getReturnValue",
      "outputs": [
        {
          "name": "",
          "type": "uint256"
        }
      ],
      "payable": false,
      "stateMutability": "view",
      "type": "function"
    },
    {
      "constant": true,
      "inputs": [
        {
          "name": "item",
          "type": "uint256"
        }
      ],
      "name": "getStatus",
      "outputs": [
        {
          "name": "",
          "type": "bool"
        }
      ],
      "payable": false,
      "stateMutability": "view",
      "type": "function"
    },
    {
      "constant": false,
      "inputs": [
        {
          "name": "item",
          "type": "uint256"
        }
      ],
      "name": "bid",
      "outputs": [],
      "payable": true,
      "stateMutability": "payable",
      "type": "function"
    }
  ],
  "bytecode": "0x6060604052341561000f57600080fd5b336000806101000a81548173ffffffffffffffffffffffffffffffffffffffff021916908373ffffffffffffffffffffffffffffffffffffffff160217905550610bf98061005e6000396000f300606060405260043610610099576000357c0100000000000000000000000000000000000000000000000000000000900463ffffffff168063236ed8f3146100d1578063454a2ab3146100f45780635c622a0e1461010c5780636fd1f270146101475780638a89ea0d146101895780638f288644146101da578063bea7d6e914610211578063c750cb7914610234578063d0053e9a14610297575b3373ffffffffffffffffffffffffffffffffffffffff166108fc349081150290604051600060405180830381858888f1935050505050005b34156100dc57600080fd5b6100f260048080359060200190919050506102e4565b005b61010a6004808035906020019091905050610616565b005b341561011757600080fd5b61012d600480803590602001909190505061092b565b604051808215151515815260200191505060405180910390f35b341561015257600080fd5b610187600480803573ffffffffffffffffffffffffffffffffffffffff16906020019091908035906020019091905050610955565b005b341561019457600080fd5b6101c0600480803573ffffffffffffffffffffffffffffffffffffffff16906020019091905050610a06565b604051808215151515815260200191505060405180910390f35b34156101e557600080fd5b6101fb6004808035906020019091905050610aa0565b6040518082815260200191505060405180910390f35b341561021c57600080fd5b6102326004808035906020019091905050610abd565b005b341561023f57600080fd5b6102556004808035906020019091905050610b47565b604051808273ffffffffffffffffffffffffffffffffffffffff1673ffffffffffffffffffffffffffffffffffffffff16815260200191505060405180910390f35b34156102a257600080fd5b6102ce600480803573ffffffffffffffffffffffffffffffffffffffff16906020019091905050610b84565b6040518082815260200191505060405180910390f35b60008060009054906101000a900473ffffffffffffffffffffffffffffffffffffffff1673ffffffffffffffffffffffffffffffffffffffff163373ffffffffffffffffffffffffffffffffffffffff1614151561034157600080fd5b600090505b600154811015610442576007600082815260200190815260200160002060009054906101000a900473ffffffffffffffffffffffffffffffffffffffff1673ffffffffffffffffffffffffffffffffffffffff166108fc600860006007600086815260200190815260200160002060009054906101000a900473ffffffffffffffffffffffffffffffffffffffff1673ffffffffffffffffffffffffffffffffffffffff1673ffffffffffffffffffffffffffffffffffffffff168152602001908152602001600020549081150290604051600060405180830381858888f19350505050151561043557600080fd5b8080600101915050610346565b6002600083815260200190815260200160002060009054906101000a900473ffffffffffffffffffffffffffffffffffffffff1673ffffffffffffffffffffffffffffffffffffffff166108fc60036000858152602001908152602001600020549081150290604051600060405180830381858888f1935050505015156104c857600080fd5b60006006600084815260200190815260200160002060006101000a81548160ff02191690831515021790555060006002600084815260200190815260200160002060006101000a81548173ffffffffffffffffffffffffffffffffffffffff021916908373ffffffffffffffffffffffffffffffffffffffff1602179055506000600860006007600085815260200190815260200160002060009054906101000a900473ffffffffffffffffffffffffffffffffffffffff1673ffffffffffffffffffffffffffffffffffffffff1673ffffffffffffffffffffffffffffffffffffffff1681526020019081526020016000208190555060006007600083815260200190815260200160002060006101000a81548173ffffffffffffffffffffffffffffffffffffffff021916908373ffffffffffffffffffffffffffffffffffffffff1602179055505050565b3373ffffffffffffffffffffffffffffffffffffffff166004600083815260200190815260200160002060009054906101000a900473ffffffffffffffffffffffffffffffffffffffff1673ffffffffffffffffffffffffffffffffffffffff161415151561068457600080fd5b3460036000838152602001908152602001600020541015156106a557600080fd5b6006600082815260200190815260200160002060009054906101000a900460ff1615156106d157600080fd5b60006003600083815260200190815260200160002054141561075c57346003600083815260200190815260200160002081905550336004600083815260200190815260200160002060006101000a81548173ffffffffffffffffffffffffffffffffffffffff021916908373ffffffffffffffffffffffffffffffffffffffff160217905550610928565b6107986004600083815260200190815260200160002060009054906101000a900473ffffffffffffffffffffffffffffffffffffffff16610a06565b15156108bd5760018054016001819055506004600082815260200190815260200160002060009054906101000a900473ffffffffffffffffffffffffffffffffffffffff16600760006001805403815260200190815260200160002060006101000a81548173ffffffffffffffffffffffffffffffffffffffff021916908373ffffffffffffffffffffffffffffffffffffffff1602179055506003600082815260200190815260200160002054600860006004600085815260200190815260200160002060009054906101000a900473ffffffffffffffffffffffffffffffffffffffff1673ffffffffffffffffffffffffffffffffffffffff1673ffffffffffffffffffffffffffffffffffffffff168152602001908152602001600020819055505b346003600083815260200190815260200160002081905550336004600083815260200190815260200160002060006101000a81548173ffffffffffffffffffffffffffffffffffffffff021916908373ffffffffffffffffffffffffffffffffffffffff1602179055505b50565b60006006600083815260200190815260200160002060009054906101000a900460ff169050919050565b6000809054906101000a900473ffffffffffffffffffffffffffffffffffffffff1673ffffffffffffffffffffffffffffffffffffffff163373ffffffffffffffffffffffffffffffffffffffff161415156109b057600080fd5b816002600083815260200190815260200160002060006101000a81548173ffffffffffffffffffffffffffffffffffffffff021916908373ffffffffffffffffffffffffffffffffffffffff1602179055505050565b600080600090505b600154811015610a95578273ffffffffffffffffffffffffffffffffffffffff166007600083815260200190815260200160002060009054906101000a900473ffffffffffffffffffffffffffffffffffffffff1673ffffffffffffffffffffffffffffffffffffffff161415610a885760019150610a9a565b8080600101915050610a0e565b600091505b50919050565b600060036000838152602001908152602001600020549050919050565b6000809054906101000a900473ffffffffffffffffffffffffffffffffffffffff1673ffffffffffffffffffffffffffffffffffffffff163373ffffffffffffffffffffffffffffffffffffffff16141515610b1857600080fd5b60016006600083815260200190815260200160002060006101000a81548160ff02191690831515021790555050565b60006004600083815260200190815260200160002060009054906101000a900473ffffffffffffffffffffffffffffffffffffffff169050919050565b6000600860008373ffffffffffffffffffffffffffffffffffffffff1673ffffffffffffffffffffffffffffffffffffffff1681526020019081526020016000205490509190505600a165627a7a72305820451634a6f9cf3bb29ae29d71162ded7ba50a259738e28617ee09bfc4139f591f0029",
  "source": "pragma solidity ^0.4.0;\ncontract auction{\n    \n     address owner;\n     uint returnCount;\n    \n    mapping (uint => address) beneficiary;\n    \n     mapping (uint => uint) highestBid ;\n     mapping (uint => address ) highestBidder;\n     mapping (uint => address ) itemBeneficiary;\n     mapping (uint => bool) started;\n    \n     mapping (uint => address)returnValueAddress ;\n     mapping (address => uint ) returnValue;\n    \n    \n    modifier onlyOwner{\n        require(msg.sender == owner);\n        _;\n    }\n    \n    \n    function setBeneficiary(address ben,uint i) onlyOwner{\n        beneficiary[i]=ben;\n    }\n    \n    function auction(){\n        owner = msg.sender;\n    }\n    \n    function startBid(uint itemNumber) onlyOwner{\n        started[itemNumber] = true;\n    }\n    \n    function checkInList(address a) constant returns (bool) {\n        for(uint i=0;i<returnCount;i++){\n            if(returnValueAddress[i]==a) return true;\n        }\n        return false;\n    }\n    \n    function getHighestBidder(uint item) constant returns (address) {\n        return highestBidder[item];\n    }\n    \n       function getHighestBid(uint item) constant returns (uint) {\n        return highestBid[item];\n    }\n    \n    function closeAuction(uint item) onlyOwner{\n        for(uint i=0;i<returnCount;i++){\n        returnValueAddress[i].transfer(returnValue[returnValueAddress[i]]);\n        }\n        beneficiary[item].transfer(highestBid[item]);\n        started[item]=false;\n        beneficiary[item]=0x0;\n        returnValue[returnValueAddress[i]]=0;\n        returnValueAddress[i]=0x0;\n        }\n        \n    \n    function getReturnValue(address a) constant returns (uint){\n        return returnValue[a];\n    }\n\n    function getStatus(uint item) constant returns (bool){\n        return started[item];\n    }\n    \n    function bid(uint item) payable{\n        require(highestBidder[item]!=msg.sender);\n        require(highestBid[item]<msg.value);\n        require(started[item]);                                                                                                                                                                                                                                                                                                                                                                                                                                                                                                                                                                                                                                                                                                                                                                                                                                                                                                                                                                                                                                                                                                                                                                                                                                                                                                                                                                                                                                                                                                                                                                                                                                                                                                                                                                                                                                                                                                                                                                                                                                                                                                                                                                                                                                 \n        if (highestBid[item]==0){\n            highestBid[item]=msg.value;\n            highestBidder[item]=msg.sender;\n        }\n        else{\n            if(!checkInList(highestBidder[item])){\n                returnCount=returnCount+1;\n                returnValueAddress[returnCount-1]=(highestBidder[item]);\n                returnValue[highestBidder[item]]=highestBid[item];\n            }                                                                                                                                                                                                                       \n            highestBid[item]=msg.value;\n            highestBidder[item]=msg.sender;\n        }\n    }\n    \n    function () payable{\n        msg.sender.send(msg.value);\n    }\n}",
  "sourcePath": "/home/rudresh/workspace/blockchain/onlineAuction/myapp/contracts/auction.sol",
  "compiler": {
    "name": "solc",
    "version": "0.4.21+commit.dfe3193c.Emscripten.clang"
  },
  "schemaVersion": "2.0.0",
  "updatedAt": "2018-04-02T03:07:22.373Z"
}